{
  "contractName": "Ticket",
  "abi": [
    {
      "inputs": [],
      "stateMutability": "nonpayable",
      "type": "constructor"
    },
    {
      "anonymous": false,
      "inputs": [
        {
          "indexed": true,
          "internalType": "address",
          "name": "owner",
          "type": "address"
        },
        {
          "indexed": true,
          "internalType": "address",
          "name": "approved",
          "type": "address"
        },
        {
          "indexed": true,
          "internalType": "uint256",
          "name": "tokenId",
          "type": "uint256"
        }
      ],
      "name": "Approval",
      "type": "event"
    },
    {
      "anonymous": false,
      "inputs": [
        {
          "indexed": true,
          "internalType": "address",
          "name": "owner",
          "type": "address"
        },
        {
          "indexed": true,
          "internalType": "address",
          "name": "operator",
          "type": "address"
        },
        {
          "indexed": false,
          "internalType": "bool",
          "name": "approved",
          "type": "bool"
        }
      ],
      "name": "ApprovalForAll",
      "type": "event"
    },
    {
      "anonymous": false,
      "inputs": [
        {
          "indexed": false,
          "internalType": "address",
          "name": "buyer",
          "type": "address"
        },
        {
          "indexed": false,
          "internalType": "uint256",
          "name": "price",
          "type": "uint256"
        },
        {
          "indexed": false,
          "internalType": "uint256",
          "name": "id",
          "type": "uint256"
        },
        {
          "indexed": false,
          "internalType": "string",
          "name": "uri",
          "type": "string"
        }
      ],
      "name": "Buy",
      "type": "event"
    },
    {
      "anonymous": false,
      "inputs": [
        {
          "indexed": false,
          "internalType": "uint256",
          "name": "id",
          "type": "uint256"
        },
        {
          "indexed": false,
          "internalType": "uint256",
          "name": "price",
          "type": "uint256"
        },
        {
          "indexed": false,
          "internalType": "string",
          "name": "tokenUri",
          "type": "string"
        },
        {
          "indexed": false,
          "internalType": "address",
          "name": "owner",
          "type": "address"
        }
      ],
      "name": "Mint",
      "type": "event"
    },
    {
      "anonymous": false,
      "inputs": [
        {
          "indexed": true,
          "internalType": "address",
          "name": "previousOwner",
          "type": "address"
        },
        {
          "indexed": true,
          "internalType": "address",
          "name": "newOwner",
          "type": "address"
        }
      ],
      "name": "OwnershipTransferred",
      "type": "event"
    },
    {
      "anonymous": false,
      "inputs": [
        {
          "indexed": false,
          "internalType": "address",
          "name": "buyer",
          "type": "address"
        },
        {
          "indexed": false,
          "internalType": "uint256",
          "name": "price",
          "type": "uint256"
        },
        {
          "indexed": false,
          "internalType": "uint256",
          "name": "id",
          "type": "uint256"
        },
        {
          "indexed": false,
          "internalType": "string",
          "name": "uri",
          "type": "string"
        }
      ],
      "name": "Sale",
      "type": "event"
    },
    {
      "anonymous": false,
      "inputs": [
        {
          "indexed": true,
          "internalType": "address",
          "name": "from",
          "type": "address"
        },
        {
          "indexed": true,
          "internalType": "address",
          "name": "to",
          "type": "address"
        },
        {
          "indexed": true,
          "internalType": "uint256",
          "name": "tokenId",
          "type": "uint256"
        }
      ],
      "name": "Transfer",
      "type": "event"
    },
    {
      "inputs": [],
      "name": "_owner",
      "outputs": [
        {
          "internalType": "address payable",
          "name": "",
          "type": "address"
        }
      ],
      "stateMutability": "view",
      "type": "function",
      "constant": true
    },
    {
      "inputs": [],
      "name": "_tokenIds",
      "outputs": [
        {
          "internalType": "uint256",
          "name": "_value",
          "type": "uint256"
        }
      ],
      "stateMutability": "view",
      "type": "function",
      "constant": true
    },
    {
      "inputs": [
        {
          "internalType": "address",
          "name": "to",
          "type": "address"
        },
        {
          "internalType": "uint256",
          "name": "tokenId",
          "type": "uint256"
        }
      ],
      "name": "approve",
      "outputs": [],
      "stateMutability": "nonpayable",
      "type": "function"
    },
    {
      "inputs": [
        {
          "internalType": "address",
          "name": "owner",
          "type": "address"
        }
      ],
      "name": "balanceOf",
      "outputs": [
        {
          "internalType": "uint256",
          "name": "",
          "type": "uint256"
        }
      ],
      "stateMutability": "view",
      "type": "function",
      "constant": true
    },
    {
      "inputs": [
        {
          "internalType": "uint256",
          "name": "tokenId",
          "type": "uint256"
        }
      ],
      "name": "getApproved",
      "outputs": [
        {
          "internalType": "address",
          "name": "",
          "type": "address"
        }
      ],
      "stateMutability": "view",
      "type": "function",
      "constant": true
    },
    {
      "inputs": [
        {
          "internalType": "address",
          "name": "owner",
          "type": "address"
        },
        {
          "internalType": "address",
          "name": "operator",
          "type": "address"
        }
      ],
      "name": "isApprovedForAll",
      "outputs": [
        {
          "internalType": "bool",
          "name": "",
          "type": "bool"
        }
      ],
      "stateMutability": "view",
      "type": "function",
      "constant": true
    },
    {
      "inputs": [],
      "name": "name",
      "outputs": [
        {
          "internalType": "string",
          "name": "",
          "type": "string"
        }
      ],
      "stateMutability": "view",
      "type": "function",
      "constant": true
    },
    {
      "inputs": [
        {
          "internalType": "uint256",
          "name": "",
          "type": "uint256"
        }
      ],
      "name": "onSale",
      "outputs": [
        {
          "internalType": "bool",
          "name": "",
          "type": "bool"
        }
      ],
      "stateMutability": "view",
      "type": "function",
      "constant": true
    },
    {
      "inputs": [],
      "name": "owner",
      "outputs": [
        {
          "internalType": "address",
          "name": "",
          "type": "address"
        }
      ],
      "stateMutability": "view",
      "type": "function",
      "constant": true
    },
    {
      "inputs": [
        {
          "internalType": "uint256",
          "name": "tokenId",
          "type": "uint256"
        }
      ],
      "name": "ownerOf",
      "outputs": [
        {
          "internalType": "address",
          "name": "",
          "type": "address"
        }
      ],
      "stateMutability": "view",
      "type": "function",
      "constant": true
    },
    {
      "inputs": [
        {
          "internalType": "uint256",
          "name": "",
          "type": "uint256"
        }
      ],
      "name": "prices",
      "outputs": [
        {
          "internalType": "uint256",
          "name": "",
          "type": "uint256"
        }
      ],
      "stateMutability": "view",
      "type": "function",
      "constant": true
    },
    {
      "inputs": [],
      "name": "renounceOwnership",
      "outputs": [],
      "stateMutability": "nonpayable",
      "type": "function"
    },
    {
      "inputs": [
        {
          "internalType": "address",
          "name": "from",
          "type": "address"
        },
        {
          "internalType": "address",
          "name": "to",
          "type": "address"
        },
        {
          "internalType": "uint256",
          "name": "tokenId",
          "type": "uint256"
        }
      ],
      "name": "safeTransferFrom",
      "outputs": [],
      "stateMutability": "nonpayable",
      "type": "function"
    },
    {
      "inputs": [
        {
          "internalType": "address",
          "name": "from",
          "type": "address"
        },
        {
          "internalType": "address",
          "name": "to",
          "type": "address"
        },
        {
          "internalType": "uint256",
          "name": "tokenId",
          "type": "uint256"
        },
        {
          "internalType": "bytes",
          "name": "_data",
          "type": "bytes"
        }
      ],
      "name": "safeTransferFrom",
      "outputs": [],
      "stateMutability": "nonpayable",
      "type": "function"
    },
    {
      "inputs": [
        {
          "internalType": "address",
          "name": "operator",
          "type": "address"
        },
        {
          "internalType": "bool",
          "name": "approved",
          "type": "bool"
        }
      ],
      "name": "setApprovalForAll",
      "outputs": [],
      "stateMutability": "nonpayable",
      "type": "function"
    },
    {
      "inputs": [
        {
          "internalType": "uint256",
          "name": "",
          "type": "uint256"
        }
      ],
      "name": "sold",
      "outputs": [
        {
          "internalType": "bool",
          "name": "",
          "type": "bool"
        }
      ],
      "stateMutability": "view",
      "type": "function",
      "constant": true
    },
    {
      "inputs": [
        {
          "internalType": "bytes4",
          "name": "interfaceId",
          "type": "bytes4"
        }
      ],
      "name": "supportsInterface",
      "outputs": [
        {
          "internalType": "bool",
          "name": "",
          "type": "bool"
        }
      ],
      "stateMutability": "view",
      "type": "function",
      "constant": true
    },
    {
      "inputs": [],
      "name": "symbol",
      "outputs": [
        {
          "internalType": "string",
          "name": "",
          "type": "string"
        }
      ],
      "stateMutability": "view",
      "type": "function",
      "constant": true
    },
    {
      "inputs": [
        {
          "internalType": "uint256",
          "name": "tokenId",
          "type": "uint256"
        }
      ],
      "name": "tokenURI",
      "outputs": [
        {
          "internalType": "string",
          "name": "",
          "type": "string"
        }
      ],
      "stateMutability": "view",
      "type": "function",
      "constant": true
    },
    {
      "inputs": [
        {
          "internalType": "address",
          "name": "from",
          "type": "address"
        },
        {
          "internalType": "address",
          "name": "to",
          "type": "address"
        },
        {
          "internalType": "uint256",
          "name": "tokenId",
          "type": "uint256"
        }
      ],
      "name": "transferFrom",
      "outputs": [],
      "stateMutability": "nonpayable",
      "type": "function"
    },
    {
      "inputs": [
        {
          "internalType": "address",
          "name": "newOwner",
          "type": "address"
        }
      ],
      "name": "transferOwnership",
      "outputs": [],
      "stateMutability": "nonpayable",
      "type": "function"
    },
    {
      "inputs": [
        {
          "internalType": "string",
          "name": "uri",
          "type": "string"
        },
        {
          "internalType": "uint256",
          "name": "_price",
          "type": "uint256"
        }
      ],
      "name": "mintToken",
      "outputs": [],
      "stateMutability": "nonpayable",
      "type": "function"
    },
    {
      "inputs": [
        {
          "internalType": "uint256",
          "name": "tokenId",
          "type": "uint256"
        }
      ],
      "name": "burn",
      "outputs": [
        {
          "internalType": "bool",
          "name": "",
          "type": "bool"
        }
      ],
      "stateMutability": "nonpayable",
      "type": "function"
    },
    {
      "inputs": [
        {
          "internalType": "uint256",
          "name": "_id",
          "type": "uint256"
        }
      ],
      "name": "putOnSale",
      "outputs": [],
      "stateMutability": "nonpayable",
      "type": "function"
    },
    {
      "inputs": [
        {
          "internalType": "uint256",
          "name": "_id",
          "type": "uint256"
        }
      ],
      "name": "buy",
      "outputs": [],
      "stateMutability": "payable",
      "type": "function",
      "payable": true
    },
    {
      "inputs": [
        {
          "internalType": "address",
          "name": "",
          "type": "address"
        },
        {
          "internalType": "address",
          "name": "",
          "type": "address"
        },
        {
          "internalType": "uint256",
          "name": "",
          "type": "uint256"
        },
        {
          "internalType": "bytes",
          "name": "",
          "type": "bytes"
        }
      ],
      "name": "onERC721Received",
      "outputs": [
        {
          "internalType": "bytes4",
          "name": "",
          "type": "bytes4"
        }
      ],
      "stateMutability": "nonpayable",
      "type": "function"
    }
  ],
  "bytecode": "0x60806040523480156200001157600080fd5b506040518060400160405280600681526020017f5469636b657400000000000000000000000000000000000000000000000000008152506040518060400160405280600381526020017f544b540000000000000000000000000000000000000000000000000000000000815250816000908051906020019062000096929190620001e7565b508060019080519060200190620000af929190620001e7565b505050620000d2620000c66200011960201b60201c565b6200012160201b60201c565b33600960006101000a81548173ffffffffffffffffffffffffffffffffffffffff021916908373ffffffffffffffffffffffffffffffffffffffff160217905550620002fc565b600033905090565b6000600760009054906101000a900473ffffffffffffffffffffffffffffffffffffffff16905081600760006101000a81548173ffffffffffffffffffffffffffffffffffffffff021916908373ffffffffffffffffffffffffffffffffffffffff1602179055508173ffffffffffffffffffffffffffffffffffffffff168173ffffffffffffffffffffffffffffffffffffffff167f8be0079c531659141344cd1fd0a4f28419497f9722a3daafe3b4186f6b6457e060405160405180910390a35050565b828054620001f59062000297565b90600052602060002090601f01602090048101928262000219576000855562000265565b82601f106200023457805160ff191683800117855562000265565b8280016001018555821562000265579182015b828111156200026457825182559160200191906001019062000247565b5b50905062000274919062000278565b5090565b5b808211156200029357600081600090555060010162000279565b5090565b60006002820490506001821680620002b057607f821691505b60208210811415620002c757620002c6620002cd565b5b50919050565b7f4e487b7100000000000000000000000000000000000000000000000000000000600052602260045260246000fd5b613d65806200030c6000396000f3fe6080604052600436106101815760003560e01c80639c03facb116100d1578063b88d4fde1161008a578063c87b56dd11610064578063c87b56dd146105b8578063d96a094a146105f5578063e985e9c514610611578063f2fde38b1461064e57610181565b8063b88d4fde14610529578063bc31c1c114610552578063c046372c1461058f57610181565b80639c03facb146104075780639dbcfd6f14610444578063a22cb4651461046d578063aa46a40014610496578063b2bdfa7b146104c1578063b43a76f1146104ec57610181565b806342842e0e1161013e57806370a082311161011857806370a082311461035d578063715018a61461039a5780638da5cb5b146103b157806395d89b41146103dc57610181565b806342842e0e146102ba57806342966c68146102e35780636352211e1461032057610181565b806301ffc9a71461018657806306fdde03146101c3578063081812fc146101ee578063095ea7b31461022b578063150b7a021461025457806323b872dd14610291575b600080fd5b34801561019257600080fd5b506101ad60048036038101906101a89190612915565b610677565b6040516101ba9190612eda565b60405180910390f35b3480156101cf57600080fd5b506101d8610759565b6040516101e59190612f10565b60405180910390f35b3480156101fa57600080fd5b50610215600480360381019061021091906129cb565b6107eb565b6040516102229190612e0c565b60405180910390f35b34801561023757600080fd5b50610252600480360381019061024d91906128d5565b610870565b005b34801561026057600080fd5b5061027b60048036038101906102769190612812565b610988565b6040516102889190612ef5565b60405180910390f35b34801561029d57600080fd5b506102b860048036038101906102b391906127bf565b61099c565b005b3480156102c657600080fd5b506102e160048036038101906102dc91906127bf565b6109fc565b005b3480156102ef57600080fd5b5061030a600480360381019061030591906129cb565b610a1c565b6040516103179190612eda565b60405180910390f35b34801561032c57600080fd5b50610347600480360381019061034291906129cb565b610aac565b6040516103549190612e0c565b60405180910390f35b34801561036957600080fd5b50610384600480360381019061037f9190612752565b610b5e565b60405161039191906131f2565b60405180910390f35b3480156103a657600080fd5b506103af610c16565b005b3480156103bd57600080fd5b506103c6610c9e565b6040516103d39190612e0c565b60405180910390f35b3480156103e857600080fd5b506103f1610cc8565b6040516103fe9190612f10565b60405180910390f35b34801561041357600080fd5b5061042e600480360381019061042991906129cb565b610d5a565b60405161043b9190612eda565b60405180910390f35b34801561045057600080fd5b5061046b600480360381019061046691906129cb565b610d7a565b005b34801561047957600080fd5b50610494600480360381019061048f9190612895565b610e4b565b005b3480156104a257600080fd5b506104ab610fcc565b6040516104b891906131f2565b60405180910390f35b3480156104cd57600080fd5b506104d6610fd8565b6040516104e39190612e27565b60405180910390f35b3480156104f857600080fd5b50610513600480360381019061050e91906129cb565b610ffe565b6040516105209190612eda565b60405180910390f35b34801561053557600080fd5b50610550600480360381019061054b9190612812565b61101e565b005b34801561055e57600080fd5b50610579600480360381019061057491906129cb565b611080565b60405161058691906131f2565b60405180910390f35b34801561059b57600080fd5b506105b660048036038101906105b1919061296f565b611098565b005b3480156105c457600080fd5b506105df60048036038101906105da91906129cb565b61119a565b6040516105ec9190612f10565b60405180910390f35b61060f600480360381019061060a91906129cb565b6112ec565b005b34801561061d57600080fd5b506106386004803603810190610633919061277f565b6115cd565b6040516106459190612eda565b60405180910390f35b34801561065a57600080fd5b5061067560048036038101906106709190612752565b611661565b005b60007f80ac58cd000000000000000000000000000000000000000000000000000000007bffffffffffffffffffffffffffffffffffffffffffffffffffffffff1916827bffffffffffffffffffffffffffffffffffffffffffffffffffffffff1916148061074257507f5b5e139f000000000000000000000000000000000000000000000000000000007bffffffffffffffffffffffffffffffffffffffffffffffffffffffff1916827bffffffffffffffffffffffffffffffffffffffffffffffffffffffff1916145b80610752575061075182611759565b5b9050919050565b60606000805461076890613500565b80601f016020809104026020016040519081016040528092919081815260200182805461079490613500565b80156107e15780601f106107b6576101008083540402835291602001916107e1565b820191906000526020600020905b8154815290600101906020018083116107c457829003601f168201915b5050505050905090565b60006107f6826117c3565b610835576040517f08c379a000000000000000000000000000000000000000000000000000000000815260040161082c906130f2565b60405180910390fd5b6004600083815260200190815260200160002060009054906101000a900473ffffffffffffffffffffffffffffffffffffffff169050919050565b600061087b82610aac565b90508073ffffffffffffffffffffffffffffffffffffffff168373ffffffffffffffffffffffffffffffffffffffff1614156108ec576040517f08c379a00000000000000000000000000000000000000000000000000000000081526004016108e390613192565b60405180910390fd5b8073ffffffffffffffffffffffffffffffffffffffff1661090b61182f565b73ffffffffffffffffffffffffffffffffffffffff16148061093a57506109398161093461182f565b6115cd565b5b610979576040517f08c379a000000000000000000000000000000000000000000000000000000000815260040161097090613032565b60405180910390fd5b6109838383611837565b505050565b600063150b7a0260e01b9050949350505050565b6109ad6109a761182f565b826118f0565b6109ec576040517f08c379a00000000000000000000000000000000000000000000000000000000081526004016109e3906131d2565b60405180910390fd5b6109f78383836119ce565b505050565b610a178383836040518060200160405280600081525061101e565b505050565b6000610a2661182f565b73ffffffffffffffffffffffffffffffffffffffff16610a44610c9e565b73ffffffffffffffffffffffffffffffffffffffff1614610a9a576040517f08c379a0000000000000000000000000000000000000000000000000000000008152600401610a9190613112565b60405180910390fd5b610aa382611c2a565b60019050919050565b6000806002600084815260200190815260200160002060009054906101000a900473ffffffffffffffffffffffffffffffffffffffff169050600073ffffffffffffffffffffffffffffffffffffffff168173ffffffffffffffffffffffffffffffffffffffff161415610b55576040517f08c379a0000000000000000000000000000000000000000000000000000000008152600401610b4c90613072565b60405180910390fd5b80915050919050565b60008073ffffffffffffffffffffffffffffffffffffffff168273ffffffffffffffffffffffffffffffffffffffff161415610bcf576040517f08c379a0000000000000000000000000000000000000000000000000000000008152600401610bc690613052565b60405180910390fd5b600360008373ffffffffffffffffffffffffffffffffffffffff1673ffffffffffffffffffffffffffffffffffffffff168152602001908152602001600020549050919050565b610c1e61182f565b73ffffffffffffffffffffffffffffffffffffffff16610c3c610c9e565b73ffffffffffffffffffffffffffffffffffffffff1614610c92576040517f08c379a0000000000000000000000000000000000000000000000000000000008152600401610c8990613112565b60405180910390fd5b610c9c6000611c7d565b565b6000600760009054906101000a900473ffffffffffffffffffffffffffffffffffffffff16905090565b606060018054610cd790613500565b80601f0160208091040260200160405190810160405280929190818152602001828054610d0390613500565b8015610d505780601f10610d2557610100808354040283529160200191610d50565b820191906000526020600020905b815481529060010190602001808311610d3357829003601f168201915b5050505050905090565b600b6020528060005260406000206000915054906101000a900460ff1681565b610d8381610aac565b73ffffffffffffffffffffffffffffffffffffffff163373ffffffffffffffffffffffffffffffffffffffff1614610df0576040517f08c379a0000000000000000000000000000000000000000000000000000000008152600401610de790612f32565b60405180910390fd5b6000600b600083815260200190815260200160002060006101000a81548160ff0219169083151502179055506001600c600083815260200190815260200160002060006101000a81548160ff02191690831515021790555050565b610e5361182f565b73ffffffffffffffffffffffffffffffffffffffff168273ffffffffffffffffffffffffffffffffffffffff161415610ec1576040517f08c379a0000000000000000000000000000000000000000000000000000000008152600401610eb890612fd2565b60405180910390fd5b8060056000610ece61182f565b73ffffffffffffffffffffffffffffffffffffffff1673ffffffffffffffffffffffffffffffffffffffff16815260200190815260200160002060008473ffffffffffffffffffffffffffffffffffffffff1673ffffffffffffffffffffffffffffffffffffffff16815260200190815260200160002060006101000a81548160ff0219169083151502179055508173ffffffffffffffffffffffffffffffffffffffff16610f7b61182f565b73ffffffffffffffffffffffffffffffffffffffff167f17307eab39ab6107e8899845ad3d59bd9653f200f220920489ca2b5937696c3183604051610fc09190612eda565b60405180910390a35050565b60088060000154905081565b600960009054906101000a900473ffffffffffffffffffffffffffffffffffffffff1681565b600c6020528060005260406000206000915054906101000a900460ff1681565b61102f61102961182f565b836118f0565b61106e576040517f08c379a0000000000000000000000000000000000000000000000000000000008152600401611065906131d2565b60405180910390fd5b61107a84848484611d43565b50505050565b600a6020528060005260406000206000915090505481565b6110a061182f565b73ffffffffffffffffffffffffffffffffffffffff166110be610c9e565b73ffffffffffffffffffffffffffffffffffffffff1614611114576040517f08c379a000000000000000000000000000000000000000000000000000000000815260040161110b90613112565b60405180910390fd5b61111e6008611d9f565b600061112a6008611db5565b905081600a60008381526020019081526020016000208190555061114e3382611dc3565b6111588184611f91565b7f2282aaf4c9a52be4e49046bb33fc7011b4fdf6f077305ea3a1916c75b28066e28183853360405161118d949392919061320d565b60405180910390a1505050565b60606111a5826117c3565b6111e4576040517f08c379a00000000000000000000000000000000000000000000000000000000081526004016111db906130d2565b60405180910390fd5b600060066000848152602001908152602001600020805461120490613500565b80601f016020809104026020016040519081016040528092919081815260200182805461123090613500565b801561127d5780601f106112525761010080835404028352916020019161127d565b820191906000526020600020905b81548152906001019060200180831161126057829003601f168201915b50505050509050600061128e612005565b90506000815114156112a45781925050506112e7565b6000825111156112d95780826040516020016112c1929190612de8565b604051602081830303815290604052925050506112e7565b6112e28461201c565b925050505b919050565b6112f581610aac565b73ffffffffffffffffffffffffffffffffffffffff163373ffffffffffffffffffffffffffffffffffffffff161415611363576040517f08c379a000000000000000000000000000000000000000000000000000000000815260040161135a906131b2565b60405180910390fd5b61136c816117c3565b6113ab576040517f08c379a00000000000000000000000000000000000000000000000000000000081526004016113a290613012565b60405180910390fd5b600a6000828152602001908152602001600020543414611400576040517f08c379a00000000000000000000000000000000000000000000000000000000081526004016113f790613172565b60405180910390fd5b6000600590506000611441606461143384600a6000888152602001908152602001600020546120c390919063ffffffff16565b6120d990919063ffffffff16565b9050600061145882346120ef90919063ffffffff16565b905073583031d1113ad414f02576bd6afabfb30214022573ffffffffffffffffffffffffffffffffffffffff166108fc839081150290604051600060405180830381858888f193505050501580156114b4573d6000803e3d6000fd5b506114be84610aac565b73ffffffffffffffffffffffffffffffffffffffff166108fc829081150290604051600060405180830381858888f19350505050158015611503573d6000803e3d6000fd5b506001600b600086815260200190815260200160002060006101000a81548160ff0219169083151502179055506000600c600086815260200190815260200160002060006101000a81548160ff02191690831515021790555061156f61156885610aac565b33866119ce565b7f149b84f345a2529777fc0c790a7d9767c1069d6621069d801ec05488e8779dbd33600a600087815260200190815260200160002054866115af8861119a565b6040516115bf9493929190612e8e565b60405180910390a150505050565b6000600560008473ffffffffffffffffffffffffffffffffffffffff1673ffffffffffffffffffffffffffffffffffffffff16815260200190815260200160002060008373ffffffffffffffffffffffffffffffffffffffff1673ffffffffffffffffffffffffffffffffffffffff16815260200190815260200160002060009054906101000a900460ff16905092915050565b61166961182f565b73ffffffffffffffffffffffffffffffffffffffff16611687610c9e565b73ffffffffffffffffffffffffffffffffffffffff16146116dd576040517f08c379a00000000000000000000000000000000000000000000000000000000081526004016116d490613112565b60405180910390fd5b600073ffffffffffffffffffffffffffffffffffffffff168173ffffffffffffffffffffffffffffffffffffffff16141561174d576040517f08c379a000000000000000000000000000000000000000000000000000000000815260040161174490612f72565b60405180910390fd5b61175681611c7d565b50565b60007f01ffc9a7000000000000000000000000000000000000000000000000000000007bffffffffffffffffffffffffffffffffffffffffffffffffffffffff1916827bffffffffffffffffffffffffffffffffffffffffffffffffffffffff1916149050919050565b60008073ffffffffffffffffffffffffffffffffffffffff166002600084815260200190815260200160002060009054906101000a900473ffffffffffffffffffffffffffffffffffffffff1673ffffffffffffffffffffffffffffffffffffffff1614159050919050565b600033905090565b816004600083815260200190815260200160002060006101000a81548173ffffffffffffffffffffffffffffffffffffffff021916908373ffffffffffffffffffffffffffffffffffffffff160217905550808273ffffffffffffffffffffffffffffffffffffffff166118aa83610aac565b73ffffffffffffffffffffffffffffffffffffffff167f8c5be1e5ebec7d5bd14f71427d1e84f3dd0314c0f7b2291e5b200ac8c7c3b92560405160405180910390a45050565b60006118fb826117c3565b61193a576040517f08c379a000000000000000000000000000000000000000000000000000000000815260040161193190612ff2565b60405180910390fd5b600061194583610aac565b90508073ffffffffffffffffffffffffffffffffffffffff168473ffffffffffffffffffffffffffffffffffffffff1614806119b457508373ffffffffffffffffffffffffffffffffffffffff1661199c846107eb565b73ffffffffffffffffffffffffffffffffffffffff16145b806119c557506119c481856115cd565b5b91505092915050565b8273ffffffffffffffffffffffffffffffffffffffff166119ee82610aac565b73ffffffffffffffffffffffffffffffffffffffff1614611a44576040517f08c379a0000000000000000000000000000000000000000000000000000000008152600401611a3b90613132565b60405180910390fd5b600073ffffffffffffffffffffffffffffffffffffffff168273ffffffffffffffffffffffffffffffffffffffff161415611ab4576040517f08c379a0000000000000000000000000000000000000000000000000000000008152600401611aab90612fb2565b60405180910390fd5b611abf838383612105565b611aca600082611837565b6001600360008573ffffffffffffffffffffffffffffffffffffffff1673ffffffffffffffffffffffffffffffffffffffff1681526020019081526020016000206000828254611b1a9190613404565b925050819055506001600360008473ffffffffffffffffffffffffffffffffffffffff1673ffffffffffffffffffffffffffffffffffffffff1681526020019081526020016000206000828254611b719190613323565b92505081905550816002600083815260200190815260200160002060006101000a81548173ffffffffffffffffffffffffffffffffffffffff021916908373ffffffffffffffffffffffffffffffffffffffff160217905550808273ffffffffffffffffffffffffffffffffffffffff168473ffffffffffffffffffffffffffffffffffffffff167fddf252ad1be2c89b69c2b068fc378daa952ba7f163c4a11628f55a4df523b3ef60405160405180910390a4505050565b611c338161210a565b6000600660008381526020019081526020016000208054611c5390613500565b905014611c7a57600660008281526020019081526020016000206000611c799190612526565b5b50565b6000600760009054906101000a900473ffffffffffffffffffffffffffffffffffffffff16905081600760006101000a81548173ffffffffffffffffffffffffffffffffffffffff021916908373ffffffffffffffffffffffffffffffffffffffff1602179055508173ffffffffffffffffffffffffffffffffffffffff168173ffffffffffffffffffffffffffffffffffffffff167f8be0079c531659141344cd1fd0a4f28419497f9722a3daafe3b4186f6b6457e060405160405180910390a35050565b611d4e8484846119ce565b611d5a8484848461221b565b611d99576040517f08c379a0000000000000000000000000000000000000000000000000000000008152600401611d9090612f52565b60405180910390fd5b50505050565b6001816000016000828254019250508190555050565b600081600001549050919050565b600073ffffffffffffffffffffffffffffffffffffffff168273ffffffffffffffffffffffffffffffffffffffff161415611e33576040517f08c379a0000000000000000000000000000000000000000000000000000000008152600401611e2a906130b2565b60405180910390fd5b611e3c816117c3565b15611e7c576040517f08c379a0000000000000000000000000000000000000000000000000000000008152600401611e7390612f92565b60405180910390fd5b611e8860008383612105565b6001600360008473ffffffffffffffffffffffffffffffffffffffff1673ffffffffffffffffffffffffffffffffffffffff1681526020019081526020016000206000828254611ed89190613323565b92505081905550816002600083815260200190815260200160002060006101000a81548173ffffffffffffffffffffffffffffffffffffffff021916908373ffffffffffffffffffffffffffffffffffffffff160217905550808273ffffffffffffffffffffffffffffffffffffffff16600073ffffffffffffffffffffffffffffffffffffffff167fddf252ad1be2c89b69c2b068fc378daa952ba7f163c4a11628f55a4df523b3ef60405160405180910390a45050565b611f9a826117c3565b611fd9576040517f08c379a0000000000000000000000000000000000000000000000000000000008152600401611fd090613092565b60405180910390fd5b80600660008481526020019081526020016000209080519060200190612000929190612566565b505050565b606060405180602001604052806000815250905090565b6060612027826117c3565b612066576040517f08c379a000000000000000000000000000000000000000000000000000000000815260040161205d90613152565b60405180910390fd5b6000612070612005565b9050600081511161209057604051806020016040528060008152506120bb565b8061209a846123b2565b6040516020016120ab929190612de8565b6040516020818303038152906040525b915050919050565b600081836120d191906133aa565b905092915050565b600081836120e79190613379565b905092915050565b600081836120fd9190613404565b905092915050565b505050565b600061211582610aac565b905061212381600084612105565b61212e600083611837565b6001600360008373ffffffffffffffffffffffffffffffffffffffff1673ffffffffffffffffffffffffffffffffffffffff168152602001908152602001600020600082825461217e9190613404565b925050819055506002600083815260200190815260200160002060006101000a81549073ffffffffffffffffffffffffffffffffffffffff021916905581600073ffffffffffffffffffffffffffffffffffffffff168273ffffffffffffffffffffffffffffffffffffffff167fddf252ad1be2c89b69c2b068fc378daa952ba7f163c4a11628f55a4df523b3ef60405160405180910390a45050565b600061223c8473ffffffffffffffffffffffffffffffffffffffff16612513565b156123a5578373ffffffffffffffffffffffffffffffffffffffff1663150b7a0261226561182f565b8786866040518563ffffffff1660e01b81526004016122879493929190612e42565b602060405180830381600087803b1580156122a157600080fd5b505af19250505080156122d257506040513d601f19601f820116820180604052508101906122cf9190612942565b60015b612355573d8060008114612302576040519150601f19603f3d011682016040523d82523d6000602084013e612307565b606091505b5060008151141561234d576040517f08c379a000000000000000000000000000000000000000000000000000000000815260040161234490612f52565b60405180910390fd5b805181602001fd5b63150b7a0260e01b7bffffffffffffffffffffffffffffffffffffffffffffffffffffffff1916817bffffffffffffffffffffffffffffffffffffffffffffffffffffffff1916149150506123aa565b600190505b949350505050565b606060008214156123fa576040518060400160405280600181526020017f3000000000000000000000000000000000000000000000000000000000000000815250905061250e565b600082905060005b6000821461242c57808061241590613563565b915050600a826124259190613379565b9150612402565b60008167ffffffffffffffff81111561244857612447613699565b5b6040519080825280601f01601f19166020018201604052801561247a5781602001600182028036833780820191505090505b5090505b60008514612507576001826124939190613404565b9150600a856124a291906135ac565b60306124ae9190613323565b60f81b8183815181106124c4576124c361366a565b5b60200101907effffffffffffffffffffffffffffffffffffffffffffffffffffffffffffff1916908160001a905350600a856125009190613379565b945061247e565b8093505050505b919050565b600080823b905060008111915050919050565b50805461253290613500565b6000825580601f106125445750612563565b601f01602090049060005260206000209081019061256291906125ec565b5b50565b82805461257290613500565b90600052602060002090601f01602090048101928261259457600085556125db565b82601f106125ad57805160ff19168380011785556125db565b828001600101855582156125db579182015b828111156125da5782518255916020019190600101906125bf565b5b5090506125e891906125ec565b5090565b5b808211156126055760008160009055506001016125ed565b5090565b600061261c6126178461327e565b613259565b905082815260208101848484011115612638576126376136cd565b5b6126438482856134be565b509392505050565b600061265e612659846132af565b613259565b90508281526020810184848401111561267a576126796136cd565b5b6126858482856134be565b509392505050565b60008135905061269c81613cd3565b92915050565b6000813590506126b181613cea565b92915050565b6000813590506126c681613d01565b92915050565b6000815190506126db81613d01565b92915050565b600082601f8301126126f6576126f56136c8565b5b8135612706848260208601612609565b91505092915050565b600082601f830112612724576127236136c8565b5b813561273484826020860161264b565b91505092915050565b60008135905061274c81613d18565b92915050565b600060208284031215612768576127676136d7565b5b60006127768482850161268d565b91505092915050565b60008060408385031215612796576127956136d7565b5b60006127a48582860161268d565b92505060206127b58582860161268d565b9150509250929050565b6000806000606084860312156127d8576127d76136d7565b5b60006127e68682870161268d565b93505060206127f78682870161268d565b92505060406128088682870161273d565b9150509250925092565b6000806000806080858703121561282c5761282b6136d7565b5b600061283a8782880161268d565b945050602061284b8782880161268d565b935050604061285c8782880161273d565b925050606085013567ffffffffffffffff81111561287d5761287c6136d2565b5b612889878288016126e1565b91505092959194509250565b600080604083850312156128ac576128ab6136d7565b5b60006128ba8582860161268d565b92505060206128cb858286016126a2565b9150509250929050565b600080604083850312156128ec576128eb6136d7565b5b60006128fa8582860161268d565b925050602061290b8582860161273d565b9150509250929050565b60006020828403121561292b5761292a6136d7565b5b6000612939848285016126b7565b91505092915050565b600060208284031215612958576129576136d7565b5b6000612966848285016126cc565b91505092915050565b60008060408385031215612986576129856136d7565b5b600083013567ffffffffffffffff8111156129a4576129a36136d2565b5b6129b08582860161270f565b92505060206129c18582860161273d565b9150509250929050565b6000602082840312156129e1576129e06136d7565b5b60006129ef8482850161273d565b91505092915050565b612a018161344a565b82525050565b612a1081613438565b82525050565b612a1f8161345c565b82525050565b612a2e81613468565b82525050565b6000612a3f826132e0565b612a4981856132f6565b9350612a598185602086016134cd565b612a62816136dc565b840191505092915050565b6000612a78826132eb565b612a828185613307565b9350612a928185602086016134cd565b612a9b816136dc565b840191505092915050565b6000612ab1826132eb565b612abb8185613318565b9350612acb8185602086016134cd565b80840191505092915050565b6000612ae4602483613307565b9150612aef826136ed565b604082019050919050565b6000612b07603283613307565b9150612b128261373c565b604082019050919050565b6000612b2a602683613307565b9150612b358261378b565b604082019050919050565b6000612b4d601c83613307565b9150612b58826137da565b602082019050919050565b6000612b70602483613307565b9150612b7b82613803565b604082019050919050565b6000612b93601983613307565b9150612b9e82613852565b602082019050919050565b6000612bb6602c83613307565b9150612bc18261387b565b604082019050919050565b6000612bd9601583613307565b9150612be4826138ca565b602082019050919050565b6000612bfc603883613307565b9150612c07826138f3565b604082019050919050565b6000612c1f602a83613307565b9150612c2a82613942565b604082019050919050565b6000612c42602983613307565b9150612c4d82613991565b604082019050919050565b6000612c65602e83613307565b9150612c70826139e0565b604082019050919050565b6000612c88602083613307565b9150612c9382613a2f565b602082019050919050565b6000612cab603183613307565b9150612cb682613a58565b604082019050919050565b6000612cce602c83613307565b9150612cd982613aa7565b604082019050919050565b6000612cf1602083613307565b9150612cfc82613af6565b602082019050919050565b6000612d14602983613307565b9150612d1f82613b1f565b604082019050919050565b6000612d37602f83613307565b9150612d4282613b6e565b604082019050919050565b6000612d5a602283613307565b9150612d6582613bbd565b604082019050919050565b6000612d7d602183613307565b9150612d8882613c0c565b604082019050919050565b6000612da0601a83613307565b9150612dab82613c5b565b602082019050919050565b6000612dc3603183613307565b9150612dce82613c84565b604082019050919050565b612de2816134b4565b82525050565b6000612df48285612aa6565b9150612e008284612aa6565b91508190509392505050565b6000602082019050612e216000830184612a07565b92915050565b6000602082019050612e3c60008301846129f8565b92915050565b6000608082019050612e576000830187612a07565b612e646020830186612a07565b612e716040830185612dd9565b8181036060830152612e838184612a34565b905095945050505050565b6000608082019050612ea36000830187612a07565b612eb06020830186612dd9565b612ebd6040830185612dd9565b8181036060830152612ecf8184612a6d565b905095945050505050565b6000602082019050612eef6000830184612a16565b92915050565b6000602082019050612f0a6000830184612a25565b92915050565b60006020820190508181036000830152612f2a8184612a6d565b905092915050565b60006020820190508181036000830152612f4b81612ad7565b9050919050565b60006020820190508181036000830152612f6b81612afa565b9050919050565b60006020820190508181036000830152612f8b81612b1d565b9050919050565b60006020820190508181036000830152612fab81612b40565b9050919050565b60006020820190508181036000830152612fcb81612b63565b9050919050565b60006020820190508181036000830152612feb81612b86565b9050919050565b6000602082019050818103600083015261300b81612ba9565b9050919050565b6000602082019050818103600083015261302b81612bcc565b9050919050565b6000602082019050818103600083015261304b81612bef565b9050919050565b6000602082019050818103600083015261306b81612c12565b9050919050565b6000602082019050818103600083015261308b81612c35565b9050919050565b600060208201905081810360008301526130ab81612c58565b9050919050565b600060208201905081810360008301526130cb81612c7b565b9050919050565b600060208201905081810360008301526130eb81612c9e565b9050919050565b6000602082019050818103600083015261310b81612cc1565b9050919050565b6000602082019050818103600083015261312b81612ce4565b9050919050565b6000602082019050818103600083015261314b81612d07565b9050919050565b6000602082019050818103600083015261316b81612d2a565b9050919050565b6000602082019050818103600083015261318b81612d4d565b9050919050565b600060208201905081810360008301526131ab81612d70565b9050919050565b600060208201905081810360008301526131cb81612d93565b9050919050565b600060208201905081810360008301526131eb81612db6565b9050919050565b60006020820190506132076000830184612dd9565b92915050565b60006080820190506132226000830187612dd9565b61322f6020830186612dd9565b81810360408301526132418185612a6d565b90506132506060830184612a07565b95945050505050565b6000613263613274565b905061326f8282613532565b919050565b6000604051905090565b600067ffffffffffffffff82111561329957613298613699565b5b6132a2826136dc565b9050602081019050919050565b600067ffffffffffffffff8211156132ca576132c9613699565b5b6132d3826136dc565b9050602081019050919050565b600081519050919050565b600081519050919050565b600082825260208201905092915050565b600082825260208201905092915050565b600081905092915050565b600061332e826134b4565b9150613339836134b4565b9250827fffffffffffffffffffffffffffffffffffffffffffffffffffffffffffffffff0382111561336e5761336d6135dd565b5b828201905092915050565b6000613384826134b4565b915061338f836134b4565b92508261339f5761339e61360c565b5b828204905092915050565b60006133b5826134b4565b91506133c0836134b4565b9250817fffffffffffffffffffffffffffffffffffffffffffffffffffffffffffffffff04831182151516156133f9576133f86135dd565b5b828202905092915050565b600061340f826134b4565b915061341a836134b4565b92508282101561342d5761342c6135dd565b5b828203905092915050565b600061344382613494565b9050919050565b600061345582613494565b9050919050565b60008115159050919050565b60007fffffffff0000000000000000000000000000000000000000000000000000000082169050919050565b600073ffffffffffffffffffffffffffffffffffffffff82169050919050565b6000819050919050565b82818337600083830152505050565b60005b838110156134eb5780820151818401526020810190506134d0565b838111156134fa576000848401525b50505050565b6000600282049050600182168061351857607f821691505b6020821081141561352c5761352b61363b565b5b50919050565b61353b826136dc565b810181811067ffffffffffffffff8211171561355a57613559613699565b5b80604052505050565b600061356e826134b4565b91507fffffffffffffffffffffffffffffffffffffffffffffffffffffffffffffffff8214156135a1576135a06135dd565b5b600182019050919050565b60006135b7826134b4565b91506135c2836134b4565b9250826135d2576135d161360c565b5b828206905092915050565b7f4e487b7100000000000000000000000000000000000000000000000000000000600052601160045260246000fd5b7f4e487b7100000000000000000000000000000000000000000000000000000000600052601260045260246000fd5b7f4e487b7100000000000000000000000000000000000000000000000000000000600052602260045260246000fd5b7f4e487b7100000000000000000000000000000000000000000000000000000000600052603260045260246000fd5b7f4e487b7100000000000000000000000000000000000000000000000000000000600052604160045260246000fd5b600080fd5b600080fd5b600080fd5b600080fd5b6000601f19601f8301169050919050565b7f53656e6465722073686f756c6420626520746865206f776e6572206f6620746860008201527f6520696400000000000000000000000000000000000000000000000000000000602082015250565b7f4552433732313a207472616e7366657220746f206e6f6e20455243373231526560008201527f63656976657220696d706c656d656e7465720000000000000000000000000000602082015250565b7f4f776e61626c653a206e6577206f776e657220697320746865207a65726f206160008201527f6464726573730000000000000000000000000000000000000000000000000000602082015250565b7f4552433732313a20746f6b656e20616c7265616479206d696e74656400000000600082015250565b7f4552433732313a207472616e7366657220746f20746865207a65726f2061646460008201527f7265737300000000000000000000000000000000000000000000000000000000602082015250565b7f4552433732313a20617070726f766520746f2063616c6c657200000000000000600082015250565b7f4552433732313a206f70657261746f7220717565727920666f72206e6f6e657860008201527f697374656e7420746f6b656e0000000000000000000000000000000000000000602082015250565b7f4572726f722c2077726f6e6720546f6b656e2069640000000000000000000000600082015250565b7f4552433732313a20617070726f76652063616c6c6572206973206e6f74206f7760008201527f6e6572206e6f7220617070726f76656420666f7220616c6c0000000000000000602082015250565b7f4552433732313a2062616c616e636520717565727920666f7220746865207a6560008201527f726f206164647265737300000000000000000000000000000000000000000000602082015250565b7f4552433732313a206f776e657220717565727920666f72206e6f6e657869737460008201527f656e7420746f6b656e0000000000000000000000000000000000000000000000602082015250565b7f45524337323155524953746f726167653a2055524920736574206f66206e6f6e60008201527f6578697374656e7420746f6b656e000000000000000000000000000000000000602082015250565b7f4552433732313a206d696e7420746f20746865207a65726f2061646472657373600082015250565b7f45524337323155524953746f726167653a2055524920717565727920666f722060008201527f6e6f6e6578697374656e7420746f6b656e000000000000000000000000000000602082015250565b7f4552433732313a20617070726f76656420717565727920666f72206e6f6e657860008201527f697374656e7420746f6b656e0000000000000000000000000000000000000000602082015250565b7f4f776e61626c653a2063616c6c6572206973206e6f7420746865206f776e6572600082015250565b7f4552433732313a207472616e73666572206f6620746f6b656e2074686174206960008201527f73206e6f74206f776e0000000000000000000000000000000000000000000000602082015250565b7f4552433732314d657461646174613a2055524920717565727920666f72206e6f60008201527f6e6578697374656e7420746f6b656e0000000000000000000000000000000000602082015250565b7f4572726f722c20546f6b656e20636f7374732073686f756c642062652065717560008201527f616c000000000000000000000000000000000000000000000000000000000000602082015250565b7f4552433732313a20617070726f76616c20746f2063757272656e74206f776e6560008201527f7200000000000000000000000000000000000000000000000000000000000000602082015250565b7f53656c6c65722063616e6e6f7420626520746865206275796572000000000000600082015250565b7f4552433732313a207472616e736665722063616c6c6572206973206e6f74206f60008201527f776e6572206e6f7220617070726f766564000000000000000000000000000000602082015250565b613cdc81613438565b8114613ce757600080fd5b50565b613cf38161345c565b8114613cfe57600080fd5b50565b613d0a81613468565b8114613d1557600080fd5b50565b613d21816134b4565b8114613d2c57600080fd5b5056fea264697066735822122035ee49bb272be9dcb26ab5745ccbb42e435e116dc2cf5b4668be60fecae6196d64736f6c63430008070033",
  "immutableReferences": {},
  "source": "// SPDX-License-Identifier: MIT\r\npragma solidity ^0.8.7;\r\n\r\nimport \"@openzeppelin/contracts/access/Ownable.sol\";\r\nimport \"@openzeppelin/contracts/utils/Counters.sol\";\r\nimport \"@openzeppelin/contracts/token/ERC721/extensions/ERC721URIStorage.sol\";\r\nimport \"@openzeppelin/contracts/token/ERC721/IERC721Receiver.sol\";\r\nimport \"@openzeppelin/contracts/utils/math/SafeMath.sol\";\r\n\r\ncontract Ticket is ERC721URIStorage, Ownable, IERC721Receiver{\r\n    \r\n    using Counters for Counters.Counter;\r\n    Counters.Counter public _tokenIds;\r\n    \r\n    using SafeMath for uint256;\r\n    \r\n    address payable public _owner;\r\n    mapping(uint256 => uint256) public prices;\r\n    mapping(uint256 => bool) public sold;\r\n    mapping(uint256 => bool) public onSale;\r\n    \r\n    event Mint(uint256 id, uint256 price, string tokenUri, address owner);\r\n    event Buy(address buyer, uint256 price, uint256 id, string uri);\r\n    event Sale(address buyer, uint256 price, uint256 id, string uri);\r\n    \r\n    constructor() ERC721(\"Ticket\", \"TKT\") {\r\n        _owner = payable(msg.sender);\r\n    }\r\n    \r\n    \r\n    function mintToken(string memory uri, uint256 _price) public onlyOwner {\r\n        _tokenIds.increment();\r\n        uint256 newItemId = _tokenIds.current();\r\n        prices[newItemId] = _price;\r\n        _mint(msg.sender, newItemId);\r\n        _setTokenURI(newItemId, uri);\r\n        \r\n        emit Mint(newItemId, _price, uri, msg.sender);\r\n    }\r\n    \r\n    function burn(uint256 tokenId) public onlyOwner returns (bool) {\r\n        _burn(tokenId);\r\n        return true;\r\n    }\r\n    \r\n    function putOnSale(uint256 _id) public {\r\n        require(msg.sender == ownerOf(_id), \"Sender should be the owner of the id\");\r\n        sold[_id] = false;\r\n        onSale[_id] = true;\r\n    }\r\n    \r\n    function buy(uint256 _id) public payable {\r\n        require(msg.sender != ownerOf(_id), \"Seller cannot be the buyer\");\r\n        require(_exists(_id), \"Error, wrong Token id\");\r\n        require(msg.value == prices[_id],\"Error, Token costs should be equal\");\r\n        \r\n        uint256 percentage = 5;\r\n        uint256 calculatedFees = prices[_id].mul(percentage).div(100);\r\n        uint256 totalAmount = msg.value.sub(calculatedFees);\r\n        payable(address(0x583031D1113aD414F02576BD6afaBfb302140225)).transfer(calculatedFees);\r\n        payable(ownerOf(_id)).transfer(totalAmount);\r\n        sold[_id] = true;\r\n        onSale[_id] = false;\r\n        _transfer(ownerOf(_id), msg.sender, _id);\r\n        \r\n        emit Buy(msg.sender, prices[_id], _id, tokenURI(_id));\r\n    }\r\n    \r\n    function onERC721Received(\r\n        address,\r\n        address,\r\n        uint256,\r\n        bytes memory\r\n    ) public virtual override returns (bytes4) {\r\n        return this.onERC721Received.selector;\r\n    }\r\n}",
  "sourcePath": "D:\\nftVision\\contracts\\contracts\\Ticket.sol",
  "compiler": {
    "name": "solc",
    "version": "0.8.7+commit.e28d00a7.Emscripten.clang"
  },
  "schemaVersion": "3.4.3",
  "updatedAt": "2021-08-25T06:46:48.018Z",
  "networkType": "ethereum",
  "devdoc": {
    "kind": "dev",
    "methods": {
      "approve(address,uint256)": {
        "details": "See {IERC721-approve}."
      },
      "balanceOf(address)": {
        "details": "See {IERC721-balanceOf}."
      },
      "getApproved(uint256)": {
        "details": "See {IERC721-getApproved}."
      },
      "isApprovedForAll(address,address)": {
        "details": "See {IERC721-isApprovedForAll}."
      },
      "name()": {
        "details": "See {IERC721Metadata-name}."
      },
      "owner()": {
        "details": "Returns the address of the current owner."
      },
      "ownerOf(uint256)": {
        "details": "See {IERC721-ownerOf}."
      },
      "renounceOwnership()": {
        "details": "Leaves the contract without owner. It will not be possible to call `onlyOwner` functions anymore. Can only be called by the current owner. NOTE: Renouncing ownership will leave the contract without an owner, thereby removing any functionality that is only available to the owner."
      },
      "safeTransferFrom(address,address,uint256)": {
        "details": "See {IERC721-safeTransferFrom}."
      },
      "safeTransferFrom(address,address,uint256,bytes)": {
        "details": "See {IERC721-safeTransferFrom}."
      },
      "setApprovalForAll(address,bool)": {
        "details": "See {IERC721-setApprovalForAll}."
      },
      "supportsInterface(bytes4)": {
        "details": "See {IERC165-supportsInterface}."
      },
      "symbol()": {
        "details": "See {IERC721Metadata-symbol}."
      },
      "tokenURI(uint256)": {
        "details": "See {IERC721Metadata-tokenURI}."
      },
      "transferFrom(address,address,uint256)": {
        "details": "See {IERC721-transferFrom}."
      },
      "transferOwnership(address)": {
        "details": "Transfers ownership of the contract to a new account (`newOwner`). Can only be called by the current owner."
      }
    },
    "version": 1
  },
  "userdoc": {
    "kind": "user",
    "methods": {},
    "version": 1
  }
}